:1000000076C1000090C100008EC100008CC10000CC
:100010008AC1000088C1000086C1000084C10000C0
:1000200082C1000080C1000076C500003FC600000C
:100030007AC1000078C1000076C1000074C10000E0
:1000400072C100009FC100006EC100006CC10000C1
:100050006AC1000068C1000066C1000064C1000000
:1000600062C1000060C100005EC100005CC1000010
:100070005AC1000058C1000056C1000054C1000020
:1000800052C1000050C100004EC100004CC1000030
:100090004AC1000048C1000046C1000044C1000040
:1000A00042C1000040C100003EC100000D0A45529F
:1000B0004420524620506F776572204D65746572FA
:1000C0000044454255470048454C50001B5B4420C6
:1000D0001B5B44000D0A1B5B33316D494E56414C8E
:1000E000494420434F4D4D414E441B5B306D000D44
:1000F0000A56697369742068747470733A2F2F6795
:1001000069746875622E636F6D2F456E68616E63EA
:100110006564526164696F446576696365732F52E3
:10012000462D506F7765722D4D6574657220666F30
:10013000722066756C6C20646F63732E0028035206
:10014000004600200050006F00770065007200201C
:10015000004D0065007400650072002000560031FB
:10016000002E00320000002E0345006E0068006182
:10017000006E0063006500640020005200610064AE
:100180000069006F0020004400650076006900638C
:10019000006500730000000403090409023E000228
:1001A0000100C03209040000010202010005240020
:1001B0001001042402060524060001070582030835
:1001C00000FF09040100020A0000000705040210F4
:1001D000000507058302100005120110010200004E
:1001E00008D8045BEF02000102DC016E616E006959
:1001F0006E660000407A10F35A00A0724E18090093
:1002000010A5D4E80000E87648170000E40B54027B
:100210000000CA9A3B000000E1F5050000809698B6
:1002200000000040420F000000A086010000001006
:100230002700000000E80300000000640000000048
:10024000000A00000000000100000000002C76D829
:1002500088DC674F0823DFC1DFAE59E1B1B796E50F
:10026000E3E453C63AE651997696E8E6C28426EB73
:10027000898C9B62ED407C6FFCEFBC9C9F40F2BA86
:10028000A56FA5F490055A2AF75C936B6CF9676D1E
:10029000C11BFCE0E40D47FEF520E6B500D0ED9073
:1002A0002E0300943577050080841E080000204E40
:1002B0000A000000C80C333333330F986E128311D9
:1002C00041EF8D2114893BE65516CFFEE6DB18D1B0
:1002D000844B381BF77C1D901DA4BBE42420328482
:1002E000725E228100C9F124ECA1E53D27001124B2
:1002F0001FBECFEFDAE0DEBFCDBF11E0A0E0B1E07E
:10030000ECE1F4E202C005900D92A635B107D9F7F1
:1003100021E0A6E5B1E001C01D92AE37B207E1F7DA
:1003200069D00C940C126CCEF894A89584B7877F92
:1003300084BFE0E6F0E08081886180831082789459
:100340000895CF93DF93FC012491EC0121962223A1
:1003500041F06DE571E0822F90E00E944211CE01E4
:10036000F2CFDF91CF910895E0916B01F0916C0194
:1003700011821082109257016DE571E083E291E0E5
:100380000C9474111F920F920FB60F9211248F9339
:100390009F93AF93BF938091590190915A01A0917F
:1003A0005B01B0915C010196A11DB11D80935901C3
:1003B00090935A01A0935B01B0935C018091590125
:1003C00090915A01A0915B01B0915C0183709927D3
:1003D000AA27BB27892B8A2B8B2B19F481E08093CA
:1003E0005801BF91AF919F918F910F900FBE0F90C9
:1003F0001F90189584B78093560114BE80E290E058
:100400000E94060F90936C0180936B011092800004
:100410008AE0809381001092820082E19AE79093B3
:10042000890080938800109285001092840082E0F9
:1004300080936F0079DFA895F894A895809160006B
:1004400088618093600089E280936000789494E0F2
:1004500080E80FB6F89480936100909361000FBE1E
:100460003DD36DE571E082E091E0A7D678948CEA07
:1004700090E067DF85E391E09F938F9389E391E0BC
:100480009F938F938DE391E09F938F938DE591E000
:100490009F938F930E94331182E091E03AD693D5D7
:1004A000869A8E9887E880937A0082E091E031D630
:1004B0008AD55ADF8DB79EB708960FB6F8949EBFBF
:1004C0000FBE8DBFC5E3D1E009E311E085E4E82E5E
:1004D00081E0F82E95E0A92EB12C2EE4C22E21E069
:1004E000D22E82E091E02BD64C0197FD9BC06DE5AA
:1004F00071E00E9442118E9A9DE08916910499F153
:1005000074F498E089169104D9F08AE08816910471
:1005100051F193E08916910409F482C066C08EE11E
:100520008816910409F45AC09FE78916910441F096
:100530008DE18816910409F058C0812C912C42C09D
:1005400080915701882309F46CC081508093570132
:10055000E0916B01F0916C01E80FF11D10828CECC1
:1005600090E0EFDE5EC080906B0190906C0144E003
:1005700050E067EC70E0C4010E940511892B19F46A
:100580008FEE90E04CC04AE050E061EC70E0C401B6
:100590000E940511892B09F040C0DF93CF931F9370
:1005A0000F93FF92EF928DE591E09F938F930E94BE
:1005B00033118DB79EB708960FB6F8949EBF0FBE45
:1005C0008DBF2EC06FEFC4010E94FA119FEF891AF0
:1005D000990A811482E09806A9F722C0A5DEE0916D
:1005E0000001F091010109951CC0809157018F31E4
:1005F000A0F4E0916B01F0916C01E80FF11D808295
:10060000809157018F5F80935701E0916B01F091CA
:100610006C01E80FF11D108204C084ED90E091DEC2
:10062000A3DE8E9880915801882309F451C045E0DB
:1006300080E090E010927C0010927B0020917A0084
:10064000206420937A0020917A0026FDFCCF20912F
:100650007A00206420937A0020917A0026FDFCCF56
:100660002091780030917900820F931F415011F74B
:10067000B5010E94BB0E80E090E030D72AE939E94D
:1006800049E95AE3B9D72BEB38EB4DE85CE3BED62A
:1006900020E030E048E852E454D62AE939E94FE94D
:1006A00051E450D69F938F937F936F93DF92CF92B5
:1006B0008DE591E09F938F930E9433111092580122
:1006C0008DB79EB708960FB6F8949EBF0FBE8DBF2C
:1006D00082E091E01ED577D4A89503CF08950895C0
:1006E00082E091E08CC482E091E07BC5292F332722
:1006F0002230310559F02330310569F021303105C0
:10070000F9F482E190E029ED31E01EC08EE390E043
:100710002BE931E019C099278130910541F08230F1
:10072000910541F0892B61F4E7E9F1E005C0E7E6C6
:10073000F1E002C0EDE3F1E0849190E09F0104C09C
:1007400080E090E020E030E0FA01318320830895DA
:1007500020917801309179012617370748F061150B
:10076000710539F42091E8002E772093E80001C04C
:10077000B901FC0120E061157105B9F180917101A9
:10078000882309F440C0853009F43FC08091E80017
:1007900083FD3DC08091E80082FF06C08091E800A3
:1007A00082FF26C080E008958091E80080FFE3CFBB
:1007B0002091F3008091F20090E0922B6115710579
:1007C00051F08830910538F421912093F100615067
:1007D00071090196F3CF21E0089709F020E080919C
:1007E000E8008E778093E800C6CF2111C7CFD6CF1F
:1007F00080917101882339F0853039F08091E800CB
:1008000083FFCCCF04C082E0089583E0089581E0A7
:10081000089520917801309179012617370748F023
:100820006115710539F42091E8002E772093E800D6
:1008300001C0B901FC0120E061157105C1F1809191
:100840007101882309F441C0853009F440C08091CA
:10085000E80083FD3EC08091E80082FF06C08091E1
:10086000E80082FF27C080E008958091E80080FFC3
:10087000E3CF2091F3008091F20090E0922B61157C
:10088000710559F08830910540F424912093F100CE
:100890003196615071090196F2CF21E0089709F075
:1008A00020E08091E8008E778093E800C5CF211189
:1008B000C6CFD5CF80917101882339F0853039F0CA
:1008C0008091E80083FFCBCF04C082E0089583E0ED
:1008D000089581E00895982F973058F59093E90096
:1008E000981739F07091EC002091ED005091F000D4
:1008F00003C0242F762F50E021FF19C03091EB0068
:100900003E7F3093EB003091ED003D7F3093ED0062
:100910003091EB0031603093EB007093EC0020934A
:10092000ED005093F0002091EE0027FF07C09F5F7D
:10093000D3CF8F708093E90081E0089580E008951F
:100940000F931F93CF93DF93062FEC0110E0101746
:1009500071F19881992341F12C81E981FA817B81A0
:10096000892F8F70873010F080E022C0223010F085
:1009700056E001C052E028E030E040E02E173F078B
:1009800020F44F5F220F331FF9CF4295407F452B54
:10099000692F661F6627661F90E4799F90011124D6
:1009A000622B99DF882301F31F5F2596D0CF81E06A
:1009B000DF91CF911F910F9108958091720187FD72
:1009C00005C08091E80080FF0EC012C08091E80051
:1009D00082FD05C0809171018111F8CF0895809149
:1009E000E8008B7708C0809171018111EACF0895EA
:1009F0008091E8008E778093E80008958091E4006C
:100A00009091E50045E62091EC0020FF21C0209167
:100A1000E80020FD21C020917101222389F02530BA
:100A200089F02091EB0025FD0FC02091E40030916A
:100A3000E5002817390739F3415041F0C901E3CFE8
:100A400082E0089583E0089581E0089584E00895A8
:100A50002091E80022FFDFCF80E008950F931F93DD
:100A6000CF93DF934BD052D0C8EDD0E088818F7701
:100A7000888388818068888388818F7D888319BC7A
:100A80001092710110926D0110926F0110926E011F
:100A900000EE10E0F80180818B7F80838881816087
:100AA000888342E060E080E016DFE1EEF0E08081E4
:100AB0008E7F8083E2EEF0E08081816080838081A0
:100AC00088608083F80180818E7F80838881806147
:100AD0008883DF91CF911F910F910895E8EDF0E0A9
:100AE00080818F7E8083E7EDF0E08081816080836C
:100AF00084E082BF81E080937001B0CFE8EDF0E048
:100B000080818E7F80831092E20008951092DA0037
:100B10001092E10008951F920F920FB60F921124C8
:100B20002F933F934F935F936F937F938F939F93F5
:100B3000AF93BF93EF93FF938091E10082FF0AC0D0
:100B40008091E20082FF06C08091E1008B7F80935C
:100B5000E10038D28091DA0080FF1DC08091D8007A
:100B600080FF19C08091DA008E7F8093DA00809137
:100B7000D90080FF0CC080E189BD82E189BD09B444
:100B800000FEFDCF81E080937101A8DD04C019BC97
:100B900010927101A4DD8091E10080FF18C0809166
:100BA000E20080FF14C08091E2008E7F8093E2001B
:100BB0008091E20080618093E2008091D8008062A1
:100BC0008093D80019BC85E080937101FBD180919E
:100BD000E10084FF2FC08091E20084FF2BC080E100
:100BE00089BD82E189BD09B400FEFDCF8091D800A6
:100BF0008F7D8093D8008091E1008F7E8093E1000B
:100C00008091E2008F7E8093E2008091E20081601B
:100C10008093E20080916D01882311F084E007C089
:100C20008091E30087FF02C083E001C081E08093F0
:100C30007101C8D18091E10083FF27C08091E2005B
:100C400083FF23C08091E100877F8093E10082E0F1
:100C50008093710110926D018091E1008E7F8093ED
:100C6000E1008091E2008E7F8093E2008091E200BB
:100C700080618093E20042E060E080E02CDE8091C1
:100C8000F00088608093F0009DD1FF91EF91BF91BB
:100C9000AF919F918F917F916F915F914F913F9114
:100CA0002F910F900FBE0F901F9018951F920F92CB
:100CB0000FB60F9211242F933F934F935F936F932F
:100CC0007F938F939F93AF93BF93CF93EF93FF93B4
:100CD000C091E900CF708091EC001092E900809102
:100CE000F000877F8093F00078941BD01092E90089
:100CF0008091F00088608093F000C093E900FF913C
:100D0000EF91CF91BF91AF919F918F917F916F9113
:100D10005F914F913F912F910F900FBE0F901F90B9
:100D200018951F93CF93DF93CDB7DEB7AA970FB671
:100D3000F894DEBF0FBECDBFE2E7F1E08091F10095
:100D4000819321E0EA37F207C9F7CDDC8091E80012
:100D500083FF20C19091720180917301853009F465
:100D600077C030F4813081F168F0833069F112C1CD
:100D7000883009F4E1C0893009F4F0C0863009F008
:100D800009C188C0903881F0923809F003C1809180
:100D900076018F708093E9008091EB0085FB8827B6
:100DA00080F91092E90006C080916E0190916F0168
:100DB000911182609091E800977F9093E800809372
:100DC000F1001092F100C3C0292F2D7F09F0E2C07D
:100DD000992319F0923061F0DDC090917401913047
:100DE00009F0D8C0833009F090E090936F012AC0D9
:100DF00090917401911126C0209176012F7009F411
:100E0000C9C02093E9009091EB0090FF1BC0833094
:100E100021F48091EB00806213C08091EB0080612F
:100E20008093EB0081E090E0022E01C0880F0A94CD
:100E3000EAF78093EA001092EA008091EB00886064
:100E40008093EB001092E9008091E800877F82C0D8
:100E50009111A0C0109174011F778091E3008078F8
:100E6000812B8093E3008091E800877F8093E800E6
:100E7000A4DD8091E80080FFFCCF8091E3008068D2
:100E80008093E300112311F083E001C082E080939E
:100E9000710180C09058923008F07CC0809174013C
:100EA000909175018C3D23E0920771F583E08A8370
:100EB0008AE289834FB7F894DE01139620E03EE082
:100EC00051E2E32FF0E050935700E49120FF03C07C
:100ED000E295EF703F5FEF708E2F90E0EA3010F0F8
:100EE000C79601C0C0968D939D932F5F243149F71B
:100EF0004FBF8091E800877F8093E8006AE270E04E
:100F0000CE01019625DC12C0AE014F5F5F4F6091AC
:100F10007601ECDB009709F43DC02091E800277FC3
:100F20002093E800BC0189819A8173DC8091E800FC
:100F30008B778093E8002EC0903861F58091E800AF
:100F4000877F8093E80080916D018093F10080910C
:100F5000E8008E778093E80030DD1CC091111AC044
:100F6000909174019230B0F48091E800877F809373
:100F7000E80090936D0121DD80916D01811104C025
:100F80008091E30087FF02C084E001C081E080938C
:100F90007101A6DB8091E80083FF0AC08091E80020
:100FA000877F8093E8008091EB0080628093EB0064
:100FB000AA960FB6F894DEBF0FBECDBFDF91CF91DA
:100FC0001F9108950895CF93809171018823A9F00E
:100FD0008091E9008F709091EC0090FF02C090E842
:100FE00001C090E0C92FC82B1092E9008091E80061
:100FF00083FD97DECF70C093E900CF910895CF9322
:10100000DF93EC01FC0170968BE0DF011D928A9565
:10101000E9F782E08C83898783E08E8761E0CE01E7
:1010200001968EDC882361F061E0CE01069688DCB3
:10103000882331F061E0CE010B96DF91CF9180CC17
:1010400080E0DF91CF910895CF93C62F2091710159
:101050002430F1F4FC014489558966897789452B50
:10106000462B472BA9F081818F708093E9008091F6
:10107000E80085FF04C0C093F10080E00AC08091C1
:10108000E8008E778093E800B9DC8823A1F301C0E3
:1010900082E0CF910895FB01682F84859585D4DF88
:1010A00021E030E0811102C020E030E0882799275C
:1010B000821B930B089520917101243041F5FC01AE
:1010C0004489558966897789452B462B472BF9F04A
:1010D00081818F708093E9002091F3008091F2006C
:1010E00090E0922B892B89F09091E8008091E800A4
:1010F0008E778093E80095FD08C080DC811108C0E0
:101100008091E8008E778093E80080E0089582E087
:10111000089520917101243089F4FC014489558996
:1011200066897789452B462B472B41F021812F700B
:101130002093E9002091E80020FDBDCF0895209183
:101140007101243019F08FEF9FEF0895FC0144895D
:10115000558966897789452B462B472BA1F38681D4
:101160008F708093E9008091E80082FFECCF20919E
:10117000F3008091F20090E0922B892B21F02091D6
:10118000F10030E002C02FEF3FEF4091F30080917B
:10119000F20090E0942B892B29F48091E8008B7762
:1011A0008093E800C9010895FC0184859585C7DF17
:1011B00097FF02C08EEF9FEF0895FB012EE0DB0149
:1011C0001D922A95E9F723E023832BE438E0318749
:1011D000208724ED38E03387228795878487089518
:1011E0000895CF93DF93EC018091E80083FFA6C0C0
:1011F000888190E020917601309177012817390796
:1012000009F09CC080917301813261F020F480323A
:1012100009F43EC093C0823209F46CC0833209F4F1
:101220007DC08CC080917201813A09F087C08091A5
:10123000E800877F8093E8008091E80080FFFCCF82
:101240004C895D896E897F894093F100BB27A72F68
:10125000962F852F8093F100CB01AA27BB2780937F
:10126000F100472F5527662777274093F100888D97
:101270008093F100898D8093F1008A8D8093F10035
:101280008091E8008E778093E800DF91CF9195CB35
:1012900080917201813209F051C08091E800877F0E
:1012A0008093E8008091E80082FD05C08091710183
:1012B0008111F8CF43C03091F1002091F10090915D
:1012C000F1008091F1003C8B2D8B9E8B8F8B809158
:1012D000F100888F8091F100898F8091F1008A8FD1
:1012E0008091E8008B778093E80067DBCE01DF9187
:1012F000CF9176CF80917201813201F58091E80023
:10130000877F8093E80059DB80917401909175018B
:10131000998B888BCE01DF91CF9162CF8091720142
:10132000813261F48091E800877F8093E80045DB9B
:1013300060917401CE01DF91CF9152CFDF91CF91B7
:1013400008955058BB27AA270ED01CC10DD130F0EC
:1013500012D120F031F49F3F11F41EF402C10EF4BB
:10136000E095E7FBF8C0E92F1ED180F3BA176207BA
:1013700073078407950718F071F49EF536C10EF4D3
:10138000E0950B2EBA2FA02D0B01B90190010C0195
:10139000CA01A0011124FF27591B99F0593F50F4AD
:1013A000503E68F11A16F040A22F232F342F442705
:1013B000585FF3CF469537952795A795F0405395FD
:1013C000C9F77EF41F16BA0B620B730B840BBAF0CD
:1013D0009150A1F0FF0FBB1F661F771F881FC2F738
:1013E0000EC0BA0F621F731F841F48F4879577954C
:1013F0006795B795F7959E3F08F0B3CF9395880F03
:1014000008F09927EE0F9795879508950CD0BAC0EC
:10141000B2D040F0A9D030F021F45F3F19F09BC06A
:101420005111E4C09EC0BFD098F39923C9F355234E
:10143000B1F3951B550BBB27AA27621773078407C7
:1014400038F09F5F5F4F220F331F441FAA1FA9F37D
:1014500033D00E2E3AF0E0E830D091505040E6956F
:10146000001CCAF729D0FE2F27D0660F771F881FD0
:10147000BB1F261737074807AB07B0E809F0BB0BBF
:10148000802DBF01FF2793585F4F2AF09E3F5105E3
:1014900068F061C0ABC05F3FECF3983EDCF386952B
:1014A00077956795B795F7959F5FC9F7880F911D59
:1014B0009695879597F90895E1E0660F771F881F45
:1014C000BB1F621773078407BA0720F0621B730BF8
:1014D000840BBA0BEE1F88F7E0950895E89409C0D5
:1014E00097FB3EF490958095709561957F4F8F4F57
:1014F0009F4F9923A9F0F92F96E9BB279395F6956D
:10150000879577956795B795F111F8CFFAF4BB0FEA
:1015100011F460FF1BC06F5F7F4F8F4F9F4F16C04E
:10152000882311F096E911C0772321F09EE8872FD8
:10153000762F05C0662371F096E8862F70E060E094
:101540002AF09A95660F771F881FDAF7880F96950D
:10155000879597F9089597F99F6780E870E060E0B4
:1015600008959FEF80EC089500240A94161617063C
:1015700018060906089500240A9412161306140684
:1015800005060895092E0394000C11F4882352F0E7
:10159000BB0F40F4BF2B11F460FF04C06F5F7F4F9F
:1015A0008F4F9F4F089557FD9058440F551F59F086
:1015B0005F3F71F04795880F97FB991F61F09F3F40
:1015C00079F087950895121613061406551FF2CF69
:1015D0004695F1DF08C0161617061806991FF1CFB9
:1015E00086957105610508940895E894BB276627E0
:1015F0007727CB0197F908950BD0C4CFB5DF28F03A
:10160000BADF18F0952309F0A6CFABCF1124EECFA7
:10161000CADFA0F3959FD1F3950F50E0551F629F4D
:10162000F001729FBB27F00DB11D639FAA27F00D3B
:10163000B11DAA1F649F6627B00DA11D661F829F62
:101640002227B00DA11D621F739FB00DA11D621F47
:10165000839FA00D611D221F749F3327A00D611D64
:10166000231F849F600D211D822F762F6A2F112446
:101670009F5750408AF0E1F088234AF0EE0FFF1F99
:10168000BB1F661F771F881F91505040A9F79E3FD0
:10169000510570F060CFAACF5F3FECF3983EDCF3CA
:1016A000869577956795B795F795E7959F5FC1F70D
:1016B000FE2B880F911D9695879597F90895A3E1C4
:1016C000B0E0E4E6FBE06BC37C011B016A01FC01B6
:1016D00017821682838181FF49C3BE016F5F7F4FEE
:1016E0004B01F7019381F10193FD859193FF819166
:1016F0001F01882309F436C3853239F493FD85919F
:1017000093FF81911F01853231F4B70190E0BAD582
:1017100056016501E6CF10E0512C20E02032A0F404
:101720008B3269F030F4803259F0833269F42061F1
:101730002CC08D3239F0803339F4216026C022600C
:10174000246023C0286021C027FD27C030ED380F5A
:101750003A3078F426FF06C0FAE01F9F300D1124BE
:10176000132F13C06AE0569E300D1124532E2062B1
:101770000CC08E3221F426FDF5C2206406C08C36E2
:1017800011F4206802C0883641F4F10193FD85917F
:1017900093FF81911F018111C1CF9BEB980F933073
:1017A00018F42061805E06C09BE9980F933008F022
:1017B0009AC12F7E26FF16E02F73722E853621F4F4
:1017C000F22FF0647F2E08C0863621F4622F606805
:1017D000762E02C01111115077FE07C01C3348F459
:1017E00044244394410E27E00BC0183030F4212FDD
:1017F00006C027E04CE3442E03C027E017E0412C4D
:10180000560174E0A70EB11CF601608171818281DE
:101810009381042DA40121D46C01098100FF02C031
:1018200003FF06C071FC07C072FC08C0612C08C031
:101830003DE2632E05C02BE2622E02C090E2692ECB
:10184000802F8C7081F1662011F084E001C083E06C
:10185000851510F0512C0AC0581A73FC07C0B70147
:1018600080E290E00FD55A94D1F7F4CF662021F0B2
:10187000B701862D90E006D503FD03C00FEE11E001
:1018800002C00BEE11E0F72DF0717F2EF80184916C
:10189000882309F45EC271108052B70190E0F2D43F
:1018A0000F5F1F4FF3CF77FE0FC04C0C04FF04C037
:1018B0008A81813309F44A94141474F5F8E0F4151C
:1018C00078F588E0482E2CC076FC2AC0812F90E065
:1018D0008C159D059CF06CEFC6166FEFD60674F064
:1018E000772D7068772E0AC0E2E0F0E0EC0FFD1F64
:1018F000E10FF11D8081803319F411501111F4CFE3
:1019000077FE0EC044244394410E812F90E0C81608
:10191000D9062CF41C1904C04424439401C010E0DF
:1019200077FE07C01C141D043CF496012F5F3F4F47
:1019300005C025E030E002C021E030E0662011F073
:101940002F5F3F4F112331F0412F50E04F5F5F4F2A
:10195000240F351F452D50E02417350714F4521A73
:1019600001C0512C872D897041F4552031F0B70109
:1019700080E290E087D45A94F8CF662021F0B70136
:10198000862D90E07FD473FC08C0552031F0B7015C
:1019900080E390E077D45A94F8CF77FE5DC09C2D19
:1019A0008D2DD7FE02C090E080E0692E782E40E0B9
:1019B00050E0C601841991099D878C8796012619EC
:1019C0003709280D391D812F90E0EE27FF27E81BEE
:1019D000F90BFF87EE87FFEF6F167F0661F4B70103
:1019E0008EE290E02B8B3A8B488B598B4BD45989E4
:1019F00048893A892B89C614D70454F06C857D85B3
:101A0000661577052CF4F901E40FF51F818101C0FB
:101A100080E371E0671A71084F5F5F4FEE85FF85C5
:101A20006E167F0664F0B70190E02B8B3A8B488BE3
:101A3000598B28D42B893A8948895989CCCF6C1481
:101A40007D0439F49A81963318F4953311F404FF28
:101A500081E3B70190E045C08A81813309F00F7EB0
:101A6000B70190E00FD4111105C074FE16C085E4D3
:101A700090E015C0B7018EE290E004D482E06624C5
:101A80006394680EF401E80FF11D8081B70190E0C6
:101A9000F9D3115051F3862DF2CF85E690E0B701CE
:101AA000F1D3D7FC05C0C114D10439F404FF05C03B
:101AB000D194C194D1088DE201C08BE2B70190E0CE
:101AC000E1D380E36AE0C616D1042CF08F5FFAE020
:101AD000CF1AD108F7CFB70190E0D4D3B701C60130
:101AE000C096D0D336C1833631F0833779F0833551
:101AF00009F054C020C0560172E0A70EB11CF601D7
:101B00008081898301E010E0640113C05601F2E096
:101B1000AF0EB11CF601C080D18026FF03C0612F3B
:101B200070E002C06FEF7FEFC6012B8B91D38C0169
:101B30002B892F7714C05601F2E0AF0EB11CF601CD
:101B4000C080D18026FF03C0612F70E002C06FEF1C
:101B50007FEFC6012B8B71D38C012B892068722EED
:101B600023FD18C0852D90E00817190798F4B701D8
:101B700080E290E087D35A94F5CFF60177FC859107
:101B800077FE81916F01B70190E07CD351105A9498
:101B9000015011090115110581F7DBC0843611F0E0
:101BA000893649F5560127FF09C0F4E0AF0EB11C94
:101BB000F60160817181828193810AC0F2E0AF0EEB
:101BC000B11CF60160817181882777FD8095982F7F
:101BD000022F0F7697FF08C09095809570956195BC
:101BE0007F4F8F4F9F4F00682AE030E0A401A4D3BD
:101BF000C82EC8183DC0022F853721F40F7E2AE079
:101C000030E01DC0097F8F3691F018F4883559F007
:101C1000A9C0803719F0883711F0A4C0006104FF13
:101C200009C0046007C024FF08C0066006C028E0A1
:101C300030E005C020E130E002C020E132E0560192
:101C400007FF09C0F4E0AF0EB11CF601608171819D
:101C50008281938108C0F2E0AF0EB11CF601608171
:101C6000718180E090E0A40167D3C82EC8180F7777
:101C700006FF0BC0202F2E7FC11650F404FF0AC0B0
:101C800002FD08C0202F2E7E05C0DC2C202F03C0B3
:101C9000DC2C01C0D12E24FF0DC0FE01EC0DF11D86
:101CA0008081803311F4297E09C022FF06C0D394BD
:101CB000D39404C0822F867809F0D39423FD12C0F8
:101CC00020FF06C01C2DD51418F4150D1D19D52C98
:101CD000D51460F4B70180E290E02B8BD3D2D3947B
:101CE0002B89F6CFD51410F45D1801C0512C24FFB8
:101CF00011C0B70180E390E02B8BC4D22B8922FF67
:101D000016C021FF03C088E590E002C088E790E09C
:101D1000B7010CC0822F867851F021FD02C080E20D
:101D200001C08BE227FD8DE2B70190E0ABD2C11676
:101D300030F4B70180E390E0A5D21150F8CFCA94F7
:101D4000F401EC0DF11D8081B70190E09BD2C11030
:101D5000F6CF552009F4DDCCB70180E290E092D2B5
:101D60005A94F7CFF7018681978102C08FEF9FEFDA
:101D70006396E2E130C0AA1BBB1B51E107C0AA1F5A
:101D8000BB1FA617B70710F0A61BB70B881F991F1C
:101D90005A95A9F780959095BC01CD0108952F9291
:101DA0003F924F925F926F927F928F929F92AF92EB
:101DB000BF92CF92DF92EF92FF920F931F93CF9338
:101DC000DF93CDB7DEB7CA1BDB0B0FB6F894DEBFCF
:101DD0000FBECDBF09942A88398848885F846E84F5
:101DE0007D848C849B84AA84B984C884DF80EE803F
:101DF000FD800C811B81AA81B981CE0FD11D0FB648
:101E0000F894DEBF0FBECDBFED010895CF93DF93F1
:101E10008230910510F482E090E0E0917C01F09135
:101E20007D0120E030E0A0E0B0E0309739F1408162
:101E3000518148175907B8F04817590771F4828142
:101E40009381109729F013969C938E9312972CC030
:101E500090937D0180937C0127C02115310531F0DD
:101E60004217530718F0A901DB0101C0EF019A01E5
:101E7000BD01DF010280F381E02DD7CF21153105AF
:101E8000F9F0281B390B2430310580F48A819B81BD
:101E90006115710521F0FB019383828304C0909347
:101EA0007D0180937C01FE01329644C0FE01E20F69
:101EB000F31F8193919322503109398328833AC0CB
:101EC00020917A0130917B01232B41F420911F0155
:101ED0003091200130937B0120937A0120911D01E4
:101EE00030911E012115310541F42DB73EB74091C7
:101EF000210150912201241B350BE0917A01F091D0
:101F00007B01E217F307A0F42E1B3F0B28173907BC
:101F100078F0AC014E5F5F4F2417350748F04E0F45
:101F20005F1F50937B0140937A018193919302C08C
:101F3000E0E0F0E0CF01DF91CF910895CF93DF9300
:101F4000009709F487C0FC01329713821282C09176
:101F50007C01D0917D01209781F420813181280F6F
:101F6000391F80917A0190917B018217930779F54F
:101F7000F0937B01E0937A016DC0DE0120E030E058
:101F8000AE17BF0750F412964D915C9113979D01C7
:101F90004115510509F1DA01F3CFB383A2834081E2
:101FA0005181840F951F8A179B0771F48D919C9125
:101FB0001197840F951F02969183808312968D91BD
:101FC0009C911397938382832115310529F4F09313
:101FD0007D01E0937C013EC0D9011396FC93EE9302
:101FE00012974D915D91A40FB51FEA17FB0779F485
:101FF00080819181840F951F0296D90111969C933F
:102000008E938281938113969C938E931297E0E036
:10201000F0E08A819B81009719F0FE01EC01F9CF75
:10202000CE01029628813981820F931F20917A0177
:1020300030917B012817390769F4309729F4109201
:102040007D0110927C0102C013821282D0937B0129
:10205000C0937A01DF91CF910895283008F027E0EE
:102060003327DA01990F311D87FD916000966105D4
:10207000710539F432602E5F3D9330E32A95E1F724
:1020800008959F3F30F080387105610509F03C5F8D
:102090003C5F3D93913008F08068911DDF93CF93B2
:1020A0001F930F93FF92EF92192F987F9695E92F28
:1020B00096959695E90FFF27E35BFD4F9927332708
:1020C000EE24FF24A701E70105900894079428F463
:1020D000360FE71EF81E491F511D660F771F881F18
:1020E000991F0694A1F70590079428F4E70EF81EAF
:1020F000491F561FC11D770F881F991F661F069421
:10210000A1F70590079428F4F80E491F561FC71F22
:10211000D11D880F991F661F771F0694A1F70590A0
:10212000079420F4490F561FC71FD81F990F661F29
:10213000771F881F0694A9F784911095177041F0B6
:10214000D695C79557954795F794E7941A95C1F793
:10215000E3EFF1E0689415901591359165919591B3
:1021600005907FE27395E118F10A430B560BC90BFA
:10217000D009C0F7E10CF11E431F561FC91FD01D27
:102180007EF4703311F48A95E6CFE894015030F074
:10219000080F0AF40027021708F4202F2395022FB6
:1021A0007A3328F079E37D932A95E9F710C07D937F
:1021B0002A9589F6069497956795379517951794FC
:1021C000E118F10A430B560BC90BD00998F023957F
:1021D0007E9173957A3308F070E37C932013B8F7FF
:1021E0007E9170617D9330F0839571E37D9370E310
:1021F0002A95E1F71124EF90FF900F911F91CF9155
:10220000DF91992787FD90950895FB01DC014150EE
:10221000504088F08D9181341CF08B350CF4805E39
:10222000659161341CF06B350CF4605E861B6111A6
:1022300071F3990B0895881BFCCFFC010590615048
:1022400070400110D8F7809590958E0F9F1F0895CC
:10225000FC016150704001900110D8F78095909575
:102260008E0F9F1F0895A0E0B0E0E8E3F1E1A7CD55
:10227000AE01475F5F4F6F8178858D819E811FDA48
:10228000E2E0B9CD0F931F93CF93DF93182F092F5F
:10229000EB018B8181FD03C08FEF9FEF20C082FF98
:1022A00010C04E815F812C813D81421753077CF421
:1022B000E881F9819F012F5F3F4F39832883108385
:1022C00006C0E885F985812F0995892B29F72E818C
:1022D0003F812F5F3F4F3F832E83812F902FDF91D0
:1022E000CF911F910F910895EF92FF920F931F933B
:1022F000CF93DF938B01DB0113962C9121FF16C046
:10230000EC01E12CF12C8991882371F0D801189609
:10231000ED91FC911997B8010995892BA1F3EE2451
:10232000EA94FF24FA94EFCFC70102C08FEF9FEF2A
:10233000CDB7DEB7E6E05BCDFA01AA27283051F130
:10234000203181F1E8946F936E7F6E5F7F4F8F4FE6
:102350009F4FAF4FB1E03ED0B4E03CD0670F781F45
:10236000891F9A1FA11D680F791F8A1F911DA11D2A
:102370006A0F711D811D911DA11D20D009F4689463
:102380003F912AE0269F11243019305D3193DEF60B
:10239000CF010895462F4770405D4193B3E00FD0C1
:1023A000C9F7F6CF462F4F70405D4A3318F0495DAC
:1023B00031FD4052419302D0A9F7EACFB4E0A6958F
:1023C0009795879577956795BA95C9F700976105B1
:1023D000710508959B01AC010A2E06945795479507
:1023E00037952795BA95C9F7620F731F841F951FFC
:1023F000A01D0895262FF999FECF92BD81BDF89AB0
:10240000019700B4021639F01FBA20BD0FB6F89438
:0C241000FA9AF99A0FBE0895F894FFCFD5
:10241C000038008310000001041000000182080045
:10242C000001000000000000000000000000007E21
:10243C000120000D0A0D0A23201B5B33366D3E1B59
:10244C005B306D2000312E3000312E3200205625AD
:10245C00732C2573000D0A5625732C2573000D0A59
:06246C00252E326600007F
:00000001FF
